:100000000C9486000C94B7000C94B7000C94B700C5
:100010000C94B7000C94B7000C94B7000C94B70084
:100020000C94B7000C94B7000C94B7000C94B70074
:100030000C94B7000C94B7000C94B7000C94B70064
:100040000C94B7000C94B7000C94B7000C94B70054
:100050000C94B7000C94B7000C94B7000C945002A9
:100060000C94B7000C9424030C94FA020C94B7007F
:100070000C94B7000C94B7000C94B7000C94B70024
:100080000C94B7000C94B7000C94B7000C94B70014
:100090000C94C4020C949A020C94B7000C94B70010
:1000A0000C94B7000C94B7000C94B7000C94B700F4
:1000B0000C94B7000C94B7000C94B7000C94B700E4
:1000C0000C94B7000C94B7000C94B7000C94B700D4
:1000D0000C94B7000C94B7000C94B7000C94B700C4
:1000E0000C94B7000C943E010C94CD010C940D01BE
:1000F0000C945A030C9480010C9430010C94E00091
:100100000C94E4040C941C015A03E40411241FBE53
:10011000CFEFD1E2DEBFCDBF00E00CBF23E0A8E40B
:10012000B2E001C01D92A539B207E1F712E0A0E0EC
:10013000B2E0EAE3FEE000E00BBF02C007900D92E0
:10014000A834B107D9F710E0C5E8D0E000E006C058
:1001500021970109802FFE010E94ED04C438D107C8
:1001600080E00807A9F70E940A040C940B070C947E
:100170000000FC01A089B18982E08C93A485B5853B
:100180001C92A685B7858FEC8C93108EA489B589B7
:1001900086E08C93A289B3898C9180618C93A2892B
:1001A000B3898C9188608C93A289B3898C91806883
:1001B0008C930288F389E02D80818F7D8083089560
:1001C000AF92BF92CF92DF92EF92FF920F931F9365
:1001D000CF93DF936C017B018B01040F151FEB01A3
:1001E0005E01AE18BF08C017D10759F06991D6015A
:1001F000ED91FC910190F081E02DC6011995892BBC
:1002000079F7C501DF91CF911F910F91FF90EF908A
:10021000DF90CF90BF90AF900895FC01538D448D37
:10022000252F30E0842F90E0821B930B541710F0A1
:10023000CF96089501970895FC01918D828D9817AE
:1002400061F0A28DAE0FBF2FB11D5D968C91928D86
:100250009F5F9F73928F90E008958FEF9FEF0895B7
:10026000FC01918D828D981731F0828DE80FF11D80
:10027000858D90E008958FEF9FEF0895FC01918D9B
:10028000228D892F90E0805C9F4F821B91098F7394
:100290009927089581E592E00E943E0121E0892B93
:1002A00009F420E0822F08958EEE92E00E943E0134
:1002B00021E0892B09F420E0822F0895FC01A48D10
:1002C000A80FB92FB11DA35ABF4F2C91848D90E078
:1002D00001968F739927848FA689B7892C93A0895B
:1002E000B1898C91837080648C93938D848D9813E5
:1002F00006C00288F389E02D80818F7D8083089578
:10030000EF92FF920F931F93CF93DF93EC0181E065
:10031000888F9B8D8C8D98131AC0E889F98980810C
:1003200085FF15C09FB7F894EE89FF896083E8893F
:10033000F98980818370806480839FBF81E090E031
:10034000DF91CF911F910F91FF90EF900895F62EBE
:100350000B8D10E00F5F1F4F0F731127E02E8C8D58
:100360008E110CC00FB607FCFACFE889F98980819D
:1003700085FFF5CFCE010E945E01F1CFEB8DEC0F32
:10038000FD2FF11DE35AFF4FF0829FB7F8940B8FBA
:10039000EA89FB8980818062CFCFCF93DF93EC0124
:1003A000888D8823B9F0AA89BB89E889F9898C915D
:1003B00085FD03C0808186FD0DC00FB607FCF7CF19
:1003C0008C9185FFF2CF808185FFEDCFCE010E9419
:1003D0005E01E9CFDF91CF91089580E090E0892B15
:1003E00029F00E94540181110E94000080E090E0F9
:1003F000892B29F00E944A0181110E94000080E0AF
:1004000090E0892B49F080E090E0892B29F00E9450
:10041000000081110E94000080E090E0892B49F0EB
:1004200080E090E0892B29F00E94000081110C945B
:100430000000089542E050E068E172E08EEE92E044
:100440000C94E000CF93DF93EC0180918B039091AB
:100450008C03009759F020918D0330918E032C1757
:100460003D0720F081E0DF91CF910895BE016F5FDD
:100470007F4F0E941A06009789F090938C03809317
:100480008B03D0938E03C0938D0320918F03309103
:100490009003232B39F7FC011082E4CF80E0E3CFF7
:1004A0001F920F920FB60F9211242F933F938F93A9
:1004B0009F93AF93BF9380914D0290914E02A09174
:1004C0004F02B091500230914C0223E0230F2D37A0
:1004D00058F50196A11DB11D20934C0280934D0249
:1004E00090934E02A0934F02B09350028091480225
:1004F00090914902A0914A02B0914B020196A11D30
:10050000B11D8093480290934902A0934A02B09390
:100510004B02BF91AF919F918F913F912F910F907F
:100520000FBE0F901F90189526E8230F0296A11D6D
:10053000B11DD2CF1F920F920FB60F9211240BB69E
:100540000F922F933F934F935F936F937F938F936C
:100550009F93AF93BF93EF93FF9381E592E00E9447
:100560005E01FF91EF91BF91AF919F918F917F912C
:100570006F915F914F913F912F910F900BBE0F9014
:100580000FBE0F901F9018951F920F920FB60F92EB
:1005900011240BB60F922F938F939F93EF93FF939A
:1005A000E0916102F09162028081E0916702F09136
:1005B000680282FD1DC0908180916A028F5F8F73F7
:1005C00020916B02821741F0E0916A02F0E0EF5A4D
:1005D000FD4F958F80936A02FF91EF919F918F91CC
:1005E0002F910F900BBE0F900FBE0F901F9018957C
:1005F0008081F2CF1F920F920FB60F9211240BB68B
:100600000F922F933F934F935F936F937F938F93AB
:100610009F93AF93BF93EF93FF938EEE92E00E9470
:100620005E01FF91EF91BF91AF919F918F917F916B
:100630006F915F914F913F912F910F900BBE0F9053
:100640000FBE0F901F9018951F920F920FB60F922A
:1006500011240BB60F922F938F939F93EF93FF93D9
:10066000E091FE02F091FF028081E0910403F0919D
:10067000050382FD1DC09081809107038F5F8F73FA
:1006800020910803821741F0E0910703F0E0E25166
:10069000FD4F958F80930703FF91EF919F918F916D
:1006A0002F910F900BBE0F900FBE0F901F901895BB
:1006B0008081F2CF109254021092530248EE53E020
:1006C00060E070E0409355025093560260935702E9
:1006D000709358028AE092E0909352028093510204
:1006E0002DEC30E030935E0220935D022CEC30E084
:1006F0003093600220935F0228EC30E03093620276
:100700002093610229EC30E030936402209363026D
:100710002AEC30E030936602209365022EEC30E044
:10072000309368022093670210926A0210926B0263
:1007300010926C0210926D021092F1021092F0026F
:100740004093F2025093F3026093F4027093F50227
:100750009093EF028093EE0285EC90E09093FB0281
:100760008093FA0284EC90E09093FD028093FC0267
:1007700080EC90E09093FF028093FE0281EC90E089
:10078000909301038093000382EC90E09093030325
:100790008093020386EC90E090930503809304031A
:1007A00010920703109208031092090310920A0393
:1007B00010928C0310928B0310928E0310928D0373
:1007C0001092900310928F0390E080E00E9422022A
:1007D00020918B0330918C03811113C021153105B9
:1007E00019F0C9010E94910510928C0310928B039D
:1007F0001092900310928F0310928E0310928D032B
:1008000008951092900310928F036AE172E0C9017B
:100810000C940407CF93DF931F921F92CDB7DEB7DE
:10082000789484B5826084BD84B5816084BD85B5CB
:10083000826085BD85B5816085BD80916E008160D7
:1008400080936E001092810080918100826080937D
:10085000810080918100816080938100809180007F
:100860008160809380008091B10084608093B100AA
:100870008091B00081608093B0008091910082608F
:10088000809391008091910081608093910080918C
:1008900090008160809390008091A100826080939D
:1008A000A1008091A10081608093A1008091A000AF
:1008B00081608093A000809121018260809321015A
:1008C00080912101816080932101809120018160CC
:1008D0008093200180917A00846080937A008091D7
:1008E0007A00826080937A0080917A0081608093A0
:1008F0007A0080917A00806880937A001092C1001B
:100900008EEE92E00E94B90081E592E00E94B9006B
:100910004DE050E06BE172E08EEE92E00E94E0006C
:100920000E941A0281E592E00E943E01892B09F49F
:1009300048C081E592E00E943E01181619064CF568
:1009400081E592E00E941C018A3099F38D3089F391
:1009500089831A8200918F03109190030F5F1F4FBC
:10096000C8010E942202882321F320918B03309139
:100970008C0380918F0390919003BE016F5F7F4F36
:10098000820F931F0E9404071093900300938F031C
:10099000D0CF4DE150E069E272E08EEE92E00E942D
:1009A000E0000E941A0240918F03509190036091E1
:1009B0008B0370918C038EEE92E00E94E0000E9407
:1009C0001A020E94ED01AECF80918B0390918C03AF
:1009D000009711F00C9491050895EE0FFF1F881FEA
:1009E0008BBF0790F691E02D19940F931F93CF932F
:1009F000DF938230910510F482E090E0E091930360
:100A0000F091940330E020E0B0E0A0E0309799F45A
:100A10002115310509F44AC0281B390B2430310552
:100A2000D8F58A819B816115710589F1FB0193835A
:100A30008283FE0111C040815181028113814817D8
:100A40005907E0F04817590799F4109761F012968A
:100A50000C93129713961C933296CF01DF91CF918E
:100A60001F910F9108950093930310939403F4CF73
:100A70002115310551F04217530738F0A901DB0168
:100A80009A01BD01DF01F801C1CFEF01F9CF9093C9
:100A9000940380939303CDCFFE01E20FF31F819364
:100AA00091932250310939832883D7CF2091910324
:100AB00030919203232B41F42091020230910302E2
:100AC0003093920320939103209100023091010210
:100AD0002115310541F42DB73EB7409104025091E4
:100AE0000502241B350BE0919103F0919203E2176C
:100AF000F307A0F42E1B3F0B2817390778F0AC0141
:100B00004E5F5F4F2417350748F04E0F5F1F50931D
:100B1000920340939103819391939FCFF0E0E0E0A3
:100B20009CCFCF93DF930097E9F0FC0132971382BB
:100B30001282A0919303B0919403ED0130E020E084
:100B40001097A1F420813181820F931F209191038E
:100B5000309192032817390709F061C0F09392038E
:100B6000E0939103DF91CF910895EA01CE17DF075B
:100B7000E8F54A815B819E0141155105B1F7E90114
:100B8000FB83EA8349915991C40FD51FEC17FD07E8
:100B900061F4808191810296840F951FE901998308
:100BA0008883828193819B838A83F0E0E0E01296C0
:100BB0008D919C9113970097B9F52D913C911197C8
:100BC000CD010296820F931F2091910330919203E1
:100BD0002817390739F6309751F51092940310927F
:100BE0009303B0939203A0939103BCCFD383C283AA
:100BF00040815181840F951FC817D90761F44E5F5A
:100C00005F4F88819981480F591F518340838A81A2
:100C10009B81938382832115310509F0B0CFF09336
:100C20009403E09393039ECFFD01DC01C0CF1382B8
:100C30001282D7CF4F925F926F927F928F929F9244
:100C4000AF92BF92CF92DF92EF92FF920F931F93DA
:100C5000CF93DF938C01009799F4CB01DF91CF9173
:100C60001F910F91FF90EF90DF90CF90BF90AF90CA
:100C70009F908F907F906F905F904F900C94F504B1
:100C8000FC01E60FF71F9C0122503109E217F30720
:100C900008F4AEC0D901CD91DC911197C617D707E2
:100CA00020F1C530D10578F0CE010497861797075B
:100CB00050F0C61BD70B2297C193D1936D937C93B1
:100CC000CF010E949105C801DF91CF911F910F9133
:100CD000FF90EF90DF90CF90BF90AF909F908F905C
:100CE0007F906F905F904F9008955B01AC1ABD0AA2
:100CF0004C018C0E9D1EA0919303B0919403512C36
:100D0000412CF12CE12C109731F5809191039091B9
:100D100092038815990509F05CC04616570608F03D
:100D200058C08091000290910102009741F48DB764
:100D30009EB74091040250910502841B950BE81761
:100D4000F90708F055C0F0939203E0939103F9017D
:100D500071836083B8CF8D919C91119712966C909E
:100D6000129713967C901397A815B90559F56C0145
:100D700042E0C40ED11CCA14DB0420F1AC014A19B4
:100D80005B09DA011296159780F0628273825183B3
:100D90004083D9016D937C93E114F10471F0D70184
:100DA0001396FC93EE9312978ECF22968C0F9D1F75
:100DB000F90191838083F301EFCFF0939403E093E3
:100DC000930381CF4816590608F42C017D01D30105
:100DD0009ACFCB010E94F5047C01009749F0AE0147
:100DE000B8010E94FB06C8010E94910587016BCFE4
:100DF00010E000E068CFFB01DC0102C001900D9221
:100E000041505040D8F70895FB01DC0101900D924C
:100E10000020E1F7089510E0C5E8D0E000E006C04A
:100E2000802FFE010E94ED042196011DC638D107D6
:0A0E300080E00807A9F7F894FFCF4F
:100E3A00000095038000000000008001E0000D0121
:100E4A00CD013E011C0130010D0A0053797374650E
:100E5A006D204F6E6C696E6500636F6469676F2001
:100E6A006F6274656E69646F202D2D2D2D2D2D2DC9
:080E7A002D2D3E202020000078
:00000001FF
